:020000040800F2
:10000000200400209D010008630300085B03000832
:100010005F030008490200087D0900080000000095
:100020000000000000000000000000001D050008A6
:100030004D02000800000000F103000861060008FE
:10004000B7010008B7010008B7010008B7010008B0
:10005000B7010008B7010008B7010008B7010008A0
:10006000B7010008B7010008B7010008B701000890
:10007000B7010008B7010008B7010008B701000880
:10008000B7010008B70100081D020008B701000809
:10009000B7010008B7010008B70100084F020008C7
:1000A000B7010008B7010008B7010008B701000850
:1000B000B7010008B7010008B7010008B701000840
:1000C000B7010008B7010008B7010008B701000830
:1000D000B701000881070008B7010008B701000850
:1000E000B7010008B7010008B7010008B701000810
:1000F000B7010008B7010008B7010008B701000800
:10010000B7010008B7010008B7010008B7010008EF
:10011000B7010008B70100083D070008B701000853
:10012000B7010008B7010008B7010008B7010008CF
:10013000B7010008B7010008B7010008B7010008BF
:10014000B7010008B7010008B7010008B7010008AF
:10015000B7010008B7010008B7010008B70100089F
:10016000B7010008B7010008B7010008B70100088F
:10017000B7010008B7010008B7010008B70100087F
:10018000B7010008B7010008DFF80CD000F018F83C
:1001900000480047950A00082004002006488047D0
:1001A00006480047FEE7FEE7FEE7FEE7FEE7FEE75C
:1001B000FEE7FEE7FEE7FEE7D50600088901000836
:1001C000064C074D06E0E06840F0010394E80700A4
:1001D00098471034AC42F6D3FFF7DAFFF00A000874
:1001E000100B000800220A12D34303607047014637
:1001F000C86C80B2704770B502460020002300240E
:100200000B12556801268E4005EA060415681D404C
:1002100015B10CB1012000E0002070BD10B540F216
:1002200005210748FFF7E7FF48B10548FFF7DFFF63
:100230000449088040F205210148FFF7D3FF10BDB3
:10024000002001400A00002000BFFEE7704710B503
:10025000402000F00BF810B1402000F001F810BD74
:100260000149086070470000143C0140014600202D
:10027000034A12680A400AB1012000E000207047DA
:10028000143C0140F0B50A4600210023002400BFC1
:100290003DE0012505FA01F3156805EA03049C42D7
:1002A00034D105684F000326BE40B543056015797B
:1002B0004E00B5400668354305601579012D02D022
:1002C0001579022D16D185684F000326BE40B5432F
:1002D000856055794E00B540866835438560456830
:1002E00001268E40B5434560456896798E40B6B28A
:1002F00035434560C5684F000326BE40B543C56021
:10030000D5794E00B540C6683543C560491C1029F3
:10031000BFD3F0BDF0B5002300244D07ED0E02FA67
:1003200005F3CE1000F1200555F826504E07F70EC4
:100330000F26BE40B543CF1000F1200646F82750E7
:10034000CE1000F1200555F8265045EA0304CE10E2
:1003500000F1200545F82640F0BD00BFFEE700BFD4
:10036000FEE7704770B5002100230F22C4781CB34C
:10037000174C246804F4E064C4F5E064C4F3072176
:10038000C1F10404E3B20A4144789C40E1B28478AC
:10039000144021430C07210E0E4C0578615504785A
:1003A00004F01F050124AC4005786D11AD0005F186
:1003B000E025C5F8004109E0047804F01F05012498
:1003C000AC40054D0678761145F8264070BD00001A
:1003D0000CED00E000E400E080E100E002490143B0
:1003E000024A1160704700000000FA050CED00E0C1
:1003F0007047000029B1064A12680243044B1A6094
:1004000004E0034A12688243014B1A6070470000FF
:100410003038024029B1064A12680243044B1A6080
:1004200004E0034A12688243014B1A6070470000DF
:1004300044380240F0B500210022002402250026A5
:100440000223324F3F6807F00C0121B1042905D087
:10045000082937D105E02E4F076036E02D4F0760A1
:1004600033E02A4F3F1F3F68C7F38056274F3F1F97
:100470003F6807F03F036EB1264FB7FBF3F7DFF895
:100480008CC0ACF1040CDCF800C0CCF3881C07FB7A
:100490000CF40CE01E4FB7FBF3F7DFF870C0ACF1C3
:1004A000040CDCF800C0CCF3881C07FB0CF4174FDD
:1004B0003F1F3F68C7F301477F1C7D00B4FBF5F782
:1004C000076002E0124F076000BF00BF0F4F3F6898
:1004D00007F0F0010909104F7A5C0768D7404760C0
:1004E0000A4F3F6807F4E051890A0B4F7A5C47686E
:1004F000D7408760054F3F6807F46041490B064FBE
:100500007A5C4768D740C760F0BD000008380240F9
:100510000024F40000127A000C0000207047000054
:100520000CB50020019000903448006840F4803001
:100530003249086000BF3148006800F40030009084
:100540000198401C0190009818B90198B0F5A04F8F
:10055000F1D12A48006800F4003010B10120009069
:1005600001E0002000900098012846D12348403047
:10057000006840F080502149403108602048006800
:1005800040F440401E4908601C48083000681B4980
:10059000083108600846006840F4004008600846DA
:1005A000006840F4A05008601648091F0860081F42
:1005B000006840F08070091F086000BF0F480068A5
:1005C00000F000700028F9D040F205700E49086074
:1005D0000A480830006820F0030008490831086024
:1005E0000846006840F00200086000BF0348083079
:1005F000006800F00C000828F8D10CBD003802405B
:100600000070004008544007003C024030B50146ED
:10061000481EB0F1807F01D3012030BD481E4FF04D
:10062000E022506150170F22002804DB13071C0E34
:10063000094B1C5406E013071D0E084B00F00F0475
:10064000241F1D5500BF00204FF0E02290610720BD
:1006500010610020E1E7000000E400E018ED00E098
:1006600010B500F01FF800F029F810BD70B5044671
:10067000A820FFF7CBFF002508E000BF4FF0E020E7
:10068000006900F480300028F8D06D1CA542F4D336
:100690004FF0E020006920F001004FF0E0210861F8
:1006A00070BD00000448006820B103480068401E87
:1006B00001490860704700000000002004480068FD
:1006C00020B103480068401E0149086070470000DF
:1006D0000400002010B51548006840F4700013496C
:1006E00008601348006840F00100114908600020CC
:1006F0000F49083108600E4800680E4908400C494F
:1007000008600D48091D0860081F006820F480205B
:10071000091F0860002006490C310860FFF700FF40
:100720004FF0006001498039086010BD88ED00E09D
:1007300000380240FFFFF6FE1030002410B5012102
:10074000044800F00CF8012803D10121014800F011
:1007500003F810BD00100040CA430282704730B554
:100760000246002000230024158A05EA010395892A
:1007700005EA010413B10CB1012000E0002030BDF6
:1007800010B540F22661084800F03AF850B1074829
:100790000078401C0549087040F22661024800F0CC
:1007A00007F800BF10BD0000001001400800002045
:1007B00010B50022002340F66A14A14200D100BF08
:1007C0000A1201249440A3B2DC43048010BD21B17D
:1007D000828942F40052828104E082894DF6FF73DF
:1007E0001A408281704702460020B1F5007F00D197
:1007F00000BF13880B400BB1012000E000207047C0
:1008000070B50246002400230025002040F66A1639
:10081000B14200D100BFC1F3421501F01F03012610
:1008200006FA03F3012D02D19689334006E0022D2A
:1008300002D1168A334001E0968A33400C12012619
:1008400006FA04F41688344013B10CB1012000E01C
:10085000002070BDF0B503460024002600250020CE
:1008600040F66A17B94200D100BF1846C1F34214DE
:1008700001F01F06012707FA06F5012C01D10C3003
:1008800004E0022C01D1103000E014301AB10768E6
:100890002F43076002E00768AF430760F0BD000028
:1008A0002DE9FF4705460E460024A14600BFA0469D
:1008B000B08900B100BF2C8A24F44054F08804436E
:1008C0002C82AC8941F20C608443B08831890843A2
:1008D000718908430443AC81AC8A24F44074B08924
:1008E0000443AC826846FFF7A5FD2048854202D04C
:1008F0001F48854202D1DDF80C9001E0DDF8089038
:10090000A88900F4004040B109EBC90000EB0910D0
:1009100031684900B0FBF1F707E009EBC90000EBD3
:10092000091031688900B0FBF1F76420B7FBF0F0E3
:1009300004012009642101FB1078A88900F400401B
:1009400040B1322000EBC800B0FBF1F000F007002E
:10095000044308E0322000EB08106421B0FBF1F002
:1009600000F00F0004432C81BDE8FF870010014018
:1009700000140140C1F308028280704700BFFEE707
:1009800002E008C8121F08C1002AFAD17047704758
:10099000002001E001C1121F002AFBD170470000B6
:1009A00010B586B0044601210846FFF723FD01215A
:1009B0001020FFF72FFD02208DF814000002049094
:1009C00002208DF8150000208DF8160001208DF80A
:1009D000170004A91C48FFF755FC02208DF81400ED
:1009E0004002049002208DF8150004A91648FFF774
:1009F00049FC072209211448FFF78CFC07220A2131
:100A00001148FFF787FC00940020ADF80C000C2083
:100A1000ADF80A000020ADF80800ADF80600ADF80A
:100A2000040069460948FFF73BFF00F020F8012267
:100A300040F226610548FFF70DFF01210348FFF74B
:100A4000C6FE06B010BD00000000024000100140CC
:100A500070B504460D4600BF80212046FFF7C3FE57
:100A60000028F9D029462046FFF784FF70BD08B55D
:100A70004FF4C060FFF7B2FC25208DF80000012084
:100A80008DF801008DF802008DF803006846FFF72D
:100A900069FC08BD4FF4E130FFF782FF25E00A2131
:100AA0001248FFF7D5FF0B211048FFF7D1FF0C21AB
:100AB0000E48FFF7CDFF0D210C48FFF7C9FF962028
:100AC000FFF7D4FD0A210948FFF7C2FF0B210748B1
:100AD000FFF7BEFF0C210548FFF7BAFF0D210348C1
:100AE000FFF7B6FF0A20FFF7C1FDD8E7001001406D
:100AF000100B0008000000201C0000008009000806
:100B00002C0B00081C0000200404000090090008C1
:100B100000000000000000000000000000000000D5
:0C0B200001020304010203040607080997
:040000050800018965
:00000001FF
